S00E00006E65774C43442E73726563F9
S11300000C94B5000C94D2000C94D2000C94D20041
S11300100C94D2000C94D2000C94D2000C94D20014
S11300200C94D2000C94D2000C94D2000C94D20004
S11300300C94D2000C94D2000C94D2000C94D200F4
S11300400C94D2000C94D2000C94D2000C94D200E4
S11300500C94D200C504C804CB04CE04D104D40447
S1130060D7045B0F5E0F610F640F670F6A0F6D0F8C
S113007000407A10F35A00A0724E18090010A5D45B
S1130080E80000E87648170000E40B54020000CAB8
S11300909A3B000000E1F5050000809698000000FE
S11300A040420F000000A08601000000102700005D
S11300B00000E803000000006400000000000A00E3
S11300C0000000000100000000002C76D888DC67E6
S11300D04F0823DFC1DFAE59E1B1B796E5E3E4533E
S11300E0C63AE651997696E8E6C28426EB898C9B5B
S11300F062ED407C6FFCEFBC9C9F40F2BAA56FA5FB
S1130100F490055A2AF75C936B6CF9676DC11BFC7C
S1130110E0E40D47FEF520E6B500D0ED902E030097
S1130120943577050080841E080000204E0A0000E4
S113013000C80C333333330F986E12831141EF8DA3
S11301402114893BE65516CFFEE6DB18D1844B38E3
S11301501BF77C1D901DA4BBE424203284725E2214
S11301608100C9F124ECA1E53D2711241FBECFE590
S1130170D8E0DEBFCDBF12E0A0E6B0E0E2E8F1E3F4
S113018002C005900D92A63CB107D9F726E0A6EC73
S1130190B2E001C01D92AA31B207E1F70E94580BE8
S11301A00C94BF180C9400008F929F92AF92BF9250
S11301B0EF92FF920F931F93CF93DF9316161706B8
S11301C004F57B018C010E5F1F4FC1E0D0E0812C50
S11301D0912C5401F801419151918F01BA01550FAD
S11301E0880B990B0E94D1109B01AC01C501B4018D
S11301F00E94BB0F4B015C012196EC16FD0654F7DF
S113020003C0812C912C5401C501B401DF91CF911D
S11302101F910F91FF90EF90BF90AF909F908F90A0
S113022008958F929F92AF92BF92EF92FF920F9395
S11302301F93CF93DF93161617063CF57B018C01B1
S11302400E5F1F4FC1E0D0E0812C912C5401F801C6
S1130250819191918F018C9FA0018D9F500D9C9F46
S1130260500D1124BA01550F880B990B0E94D1101F
S11302709B01AC01C501B4010E94BB0F4B015C01A1
S11302802196EC16FD061CF703C0812C912C540119
S1130290C501B401DF91CF911F910F91FF90EF90B1
S11302A0BF90AF909F908F9008954F925F926F92FE
S11302B07F928F929F92AF92BF92CF92DF92EF92F2
S11302C0FF920F931F93CF93DF93CDB7DEB72C9795
S11302D00FB6F894DEBF0FBECDBF8C016A017B015F
S11302E020E030E040E85FE3C701B6010E94BB0FA5
S11302F04B015C0120E030E040E05FE30E945D11CF
S113030069837A838B839C83C701B6010E94991009
S11303102B013C01C8010E94D400A70196010E9450
S113032027106D837E838F839887B201C8010E9452
S113033011012B013C0129813A814B815C81C70168
S1130340B6010E945D1169877A878B879C872D810E
S11303503E814F8158850E945D119B01AC01C30110
S1130360B2010E94BA0F2B013C01A7019601C501FD
S1130370B4010E945D114B015C01A7019601C70104
S1130380B6010E94BB0F20E030E040E85FE30E942A
S1130390BB0F9B01AC01C501B4010E945D1120E0BB
S11303A030E040EC50E40E9427106B017C01298569
S11303B03A854B855C8569817A818B819C810E9419
S11303C05D119B01AC01C701B6010E94BA0F9B01EC
S11303D0AC01C301B2010E9427109B01AC016093E0
S11303E0CA027093CB028093CC029093CD026981B0
S11303F07A818B819C810E945D119B01AC016D818E
S11304007E818F8198850E94BA0F6093C602709393
S1130410C7028093C8029093C9022C960FB6F89431
S1130420DEBF0FBECDBFDF91CF911F910F91FF9023
S1130430EF90DF90CF90BF90AF909F908F907F9080
S11304406F905F904F900895369A3699FECF84B19D
S113045095B10895D19880EC87B980E886B908955C
S11304602F923F924F925F926F927F928F929F92C0
S1130470AF92BF92CF92DF92EF92FF920F931F93AE
S1130480CF93DF9300D000D000D0CDB7DEB72DB628
S11304903EB68DB79EB78E5291400FB6F8949EBF6C
S11304A00FBE8DBFEDB7FEB731962F01EDB7FEB786
S11304B012821182EDB6FEB6F3E0EF0EF11C8DB69A
S11304C09EB62FEC821A2EEF920A0FE910E00F2E3F
S11304D0FAE06F2E712CF02D0F2EFBE6AF2EF0E01C
S11304E0BF2EF02DCE0101966C010E942402F7016B
S11304F0819391937F01C801B3010E94CA117F9334
S11305006F93BF92AF92DF92CF920E94711346E035
S113051050E061E070E080E00E946206B60180E095
S11305200E944B06FFEF20E782E0F150204080401C
S1130530E1F700C00000015011090F900F900F90D7
S11305400F900F900F90E814F90479F640E050E012
S113055066E173E4C2010E945501F20194ED491A67
S11305609EEF590A80E090E02281338140815181DD
S113057032964217530734F442815381421753078A
S11305800CF40196E415F50579F74AE0BE016F5FB6
S11305907F4F880F991F880F991F0E944C134AE0C0
S11305A050E061E070E080E00E946206BE016F5F8F
S11305B07F4F80E00E944B064DE050E061E070E028
S11305C080E00E94620660E770E080E00E944B06D3
S11305D0BE016F5F7F4F86ED92E00E9445130FB618
S11305E0F8943EBE0FBE2DBE26960FB6F894DEBF1D
S11305F00FBECDBFDF91CF911F910F91FF90EF9070
S1130600DF90CF90BF90AF909F908F907F906F902E
S11306105F904F903F902F900895D298089589B39A
S113062082FB882780F991E0892708950895089529
S113063008958CB95D9BFECF0895CF93DF93EC01B1
S11306408881882331F021960E94190389918111B0
S1130650FBCFDF91CF9108958AB383708ABB8FEF6C
S113066087BB88BB08951092D1021092D0021092D9
S1130670CF021092CE021092D6020895009759F438
S113068084E790E00E9416031092CF021092CE02EB
S11306901092D6020895FC0101900020E9F73197E9
S11306A0E81BF90BE031F10528F5AF011092CF02F8
S11306B01092CE021E161F06B4F4FC01A6EDB2E0A1
S11306C020E030E081918D932F5F3F4F3093CF0234
S11306D02093CE0224173507ACF3141615062CF01C
S11306E041E050E002C040E050E0FA01EA52FD4F20
S11306F0108208951092CF021092CE0240E150E091
S1130700DCCF81E08093D10208958091D1028111E0
S113071007C08091D002811106C08CE890E0089552
S113072084E890E0089588E890E00895CF93DF93FB
S11307300E948503EC01FC0101900020E9F7AC0163
S11307404E1B5F0B4F5E5F4F60E070E080E00E94E5
S11307506206BE0180E00E944B06DF91CF910895AE
S113076089B382958F7008950F931F93CF93C9B364
S1130770C295CF700C2F10E0B80180E990E00E9480
S11307801803C0FD0CC081E090E09801082E02C05F
S1130790359527950A94E2F720FF04C00CC080E049
S11307A090E009C001968430910579F789E990E0D9
S11307B00E9416038FEFCF911F910F9108950F930D
S11307C01F93CF93DF93C7E0D0E001E010E028B39C
S11307D0C8010C2E02C0880F991F0A94E2F78227E1
S11307E088BB66B370E087EA90E00E94180389B37F
S11307F082958F7011F48C2F07C0219740F78DEAF2
S113080090E00E9416038FEFDF91CF911F910F911B
S113081008952091CE023091CF02F901EA52FD4FA2
S113082080832031310534F42F5F3F4F3093CF0262
S11308302093CE02E091CE02F091CF02EA52FD4F16
S113084010820895CF93C82F8E3124F08BEB90E063
S11308500E941603CD3199F48091CE029091CF027B
S1130860009729F001979093CF028093CE02E091F4
S1130870CE02F091CF02EA52FD4F108255C0CC3126
S113088021F480E20E9409044FC0CB3139F49091E5
S1130890D10281E089278093D10246C08091D102A0
S11308A08823D9F08C2F87708330F0F5C595C595D2
S11308B0C595C33030F48F5C9C2F990FC90F8C0FF2
S11308C009C0882321F0813021F083E203C08AE249
S11308D001C080E30E94090427C0CA3139F4909111
S11308E0D00281E089278093D0021EC09C2F959569
S11308F095959595C770933068F48091D0028111D5
S113090002C081E601C081E4990F990F990FC90FC4
S11309108C0F08C08091D002811102C089E701C008
S113092089E58C0F0E940904CF910895CF93DF933A
S11309300E94B403C82F0E94DF03D82F6C2F0C2E03
S1130940000C770B80ED90E00E9417036D2F0D2EA5
S1130950000C770B84ED90E00E9417038C2F880F16
S1130960880F880F8D0FDF91CF910895E0911506C0
S11309704E2FEE0F550B660B770B47305105D0F415
S1130980FA01E65DFF4F0C94DE110E942C0F0895CE
S11309900E947F0D08950E94F30C08950E94C20DD9
S11309A008950E94250E08950E94330D08950E9413
S11309B0FB0E089588ED90E00E941603089584B715
S11309C0806884BF84B7806884BF0895CF93C82F9C
S11309D080FF07C061E070E086E190E00E94BD0600
S11309E006C060E070E086E190E00E94BD06C1FFB1
S11309F007C061E070E087E190E00E94BD0606C098
S1130A0060E070E087E190E00E94BD06C2FF07C08D
S1130A1061E070E088E190E00E94BD0606C060E0FD
S1130A2070E088E190E00E94BD06C3FF07C061E06A
S1130A3070E089E190E00E94BD0606C060E070E0CD
S1130A4089E190E00E94BD06CF910895CF93C82F0D
S1130A5060E070E08AE190E00E94BD068C2F0E9465
S1130A60E60461E070E08BE190E00E94BD068FEC4B
S1130A7097E00197F1F700C0000060E070E08BE1BF
S1130A8090E00E94BD068FEC97E00197F1F700C05B
S1130A900000CF91089580E00E94260581E00E9425
S1130AA026050895CF93C62F81110BC080E8860FC9
S1130AB082958F700E9426058C2F8F700E942605C8
S1130AC00CC0813051F480EC860F82958F700E94A7
S1130AD026058C2F8F700E942605CF9108950E94C1
S1130AE0DF048FEC97E00197F1F700C0000084B3B6
S1130AF08C6F84BB85B3837085BB80E00E94E60461
S1130B008FE39CE90197F1F700C0000083E00E94A5
S1130B1026058FE097E20197F1F700C0000083E01B
S1130B200E9426058FEE95E50197F1F700C00000BD
S1130B3083E00E94260582E00E94260582E00E944E
S1130B40260588E00E94260580E00E9426058CE0A8
S1130B500E94260580E00E94260586E00E94260564
S1130B600E944B050895CF93C82F61E070E08AE19D
S1130B7090E00E94BD068C2F82958F700E94E6043F
S1130B8061E070E08BE190E00E94BD068FEC97E09D
S1130B900197F1F700C0000060E070E08BE190E0A5
S1130BA00E94BD068FEC97E00197F1F700C00000AA
S1130BB08C2F8F700E94E60461E070E08BE190E07E
S1130BC00E94BD068FEC97E00197F1F700C000008A
S1130BD060E070E08BE190E00E94BD068FEC97E04E
S1130BE00197F1F700C00000CF910895CF93DF93F0
S1130BF0EC018881882331F021960E94B305899104
S1130C008111FBCFDF91CF910895813051F0823073
S1130C1031F1811127C081B38C6F81BB0E9486089A
S1130C20089582E00E94DB0980E00E944C0A2FEFC5
S1130C3084E39CE0215080409040E1F700C0000034
S1130C4081E00E944C0A2FEF84E39CE02150804015
S1130C509040E1F700C000000E949A0908950E94A4
S1130C606F0508958CEF90E00E941603089581307B
S1130C7039F0823041F0811109C00E946208089560
S1130C800E949A0908950E944B0508958BE191E012
S1130C900E9416030895813041F0823051F0811191
S1130CA00CC0CB010E94FF080895CB010E94CC091F
S1130CB00895CB010E94F605089582E491E00E9414
S1130CC016030895962F813049F0823059F081112E
S1130CD00EC0642F892F0E9469080895842F0E94F2
S1130CE084090895642F892F0E945205089584E68B
S1130CF091E00E9416030895CF93DF9300D0CDB7FF
S1130D00DEB769831A82BE016F5F7F4F0E944B0674
S1130D100F900F90DF91CF910895FF920F931F933F
S1130D20CF93DF93F82EEA0140E050E00E94620680
S1130D306881662391F08E010F5F1F4FC0E0D0E001
S1130D4021968F2D0E947C06F80161918F0161111B
S1130D50F7CFC031D1051CF00AC0C0E0D0E060E29A
S1130D608F2D0E947C062196C031D105C4F3DF91FA
S1130D70CF911F910F91FF900895672B09F09FC0A9
S1130D80009711F4D89808958130910511F4D998F9
S1130D9008958230910511F4DA980895833091050D
S1130DA011F4DB9808958430910511F4DC980895CA
S1130DB08530910511F4DD9808958630910511F47C
S1130DC0DE9808958730910511F4DF9808958A30EC
S1130DD0910511F4C09808958B30910511F4C198D0
S1130DE008958C30910511F4C29808958D309105C1
S1130DF011F4C39808958E30910511F4C4980895A0
S1130E008F30910511F4C59808958031910511F43E
S1130E10C69808958131910511F4C79808958431D5
S1130E20910511F4A89808958531910511F4A998B4
S1130E3008958631910511F4AA9808958731910592
S1130E4011F4AB9808958831910511F4AC98089584
S1130E508931910511F4AD9808958A31910511F401
S1130E60AE9808958B31910511F4AF9808958E31A1
S1130E70910511F4909808958F31910511F491988A
S1130E8008958032910511F4929808958132910564
S1130E9011F4939808958232910511F49498089569
S1130EA08332910511F4959808958432910511F4D3
S1130EB096980895859709F09FC09798089500978C
S1130EC011F4D89A08958130910511F4D99A0895AE
S1130ED08230910511F4DA9A08958330910511F462
S1130EE0DB9A08958430910511F4DC9A08958530D5
S1130EF0910511F4DD9A08958630910511F4DE9A76
S1130F0008958730910511F4DF9A08958A30910588
S1130F1011F4C09A08958B30910511F4C19A089583
S1130F208C30910511F4C29A08958D30910511F415
S1130F30C39A08958E30910511F4C49A08958F30A0
S1130F40910511F4C59A08958031910511F4C69A5A
S1130F5008958131910511F4C79A0895843191055A
S1130F6011F4A89A08958531910511F4A99A089568
S1130F708631910511F4AA9A08958731910511F4E7
S1130F80AB9A08958831910511F4AC9A089589318A
S1130F90910511F4AD9A08958A31910511F4AE9A30
S1130FA008958B31910511F4AF9A08958E3191050E
S1130FB011F4909A08958F31910511F4919A08953E
S1130FC08032910511F4929A08958132910511F4B9
S1130FD0939A08958232910511F4949A0895833274
S1130FE0910511F4959A08958432910511F4969A15
S1130FF00895859709F4979A0895CF93C82F80FF91
S113100007C061E070E083E290E00E94BD0606C084
S113101060E070E083E290E00E94BD06C1FF07C07B
S113102061E070E082E290E00E94BD0606C060E0EC
S113103070E082E290E00E94BD06C2FF07C061E05A
S113104070E081E290E00E94BD0606C060E070E0BE
S113105081E290E00E94BD06C3FF07C061E070E03A
S113106080E290E00E94BD0606C060E070E080E28D
S113107090E00E94BD06CF910895CF93C82F60E001
S113108070E085E290E00E94BD068C2F0E94FD076F
S113109061E070E084E290E00E94BD068FEC97E08E
S11310A00197F1F700C0000060E070E084E290E096
S11310B00E94BD068FEC97E00197F1F700C0000095
S11310C0CF91089580E00E943D0881E00E943D0890
S11310D00895CF93C62F81110BC080E8860F8295A7
S11310E08F700E943D088C2F8F700E943D080CC0A9
S11310F0813051F480EC860F82958F700E943D08F8
S11311008C2F8F700E943D08CF91089580E00E943B
S1131110FD078FE39CE90197F1F700C0000083E02D
S11311200E943D088FE097E20197F1F700C00000AC
S113113083E00E943D088FEE95E50197F1F700C02A
S1131140000083E00E943D0882E00E943D0882E0A6
S11311500E943D0888E00E943D0880E00E943D080E
S11311608CE00E943D0880E00E943D0886E00E94D9
S11311703D080E9462080895CF93C82F61E070E093
S113118085E290E00E94BD068C2F82958F700E94AC
S1131190FD0761E070E084E290E00E94BD068FEC00
S11311A097E00197F1F700C0000060E070E084E28E
S11311B090E00E94BD068FEC97E00197F1F700C024
S11311C000008C2F8F700E94FD0761E070E084E2C4
S11311D090E00E94BD068FEC97E00197F1F700C004
S11311E0000060E070E084E290E00E94BD068FECB5
S11311F097E00197F1F700C00000CF910895CF93D5
S1131200DF93EC018881882331F021960E94BC0889
S113121089918111FBCFDF91CF910895EF92FF92D5
S11312200F931F93CF93DF937B01142F880F0E949A
S1131230890F811112C0112391F0E7011150012F80
S113124010E00F5F1F4F0E0D1F1D89910E94AD0FFF
S1131250C017D107D1F7C0E003C0C1E001C0C0E0AE
S11312600E94A70F8C2FDF91CF911F910F91FF90B8
S1131270EF9008950F931F93CF93DF9300D000D086
S11312801F92CDB7DEB7082F683071F4811102C008
S113129080E001C088E08093660041E066E670E08B
S11312A087E20E940E0926C090916600162F192B22
S11312B01983982F907F9460912B9A839B7F9B83B3
S11312C080E1089F90011124212B24602C832B7F23
S11312D02D8345E0BE016F5F7F4F87E20E940E09B8
S11312E010FD08C0033030F4E3EFF1E03197F1F77B
S11312F000C000000F900F900F900F900F90DF919F
S1131300CF911F910F910895CF93DF93D82FC62FBC
S1131310982F9068E62FF0E0E959FF4F808160E054
S1131320892B0E943A09D093E802C093E902DF9125
S1131330CF91089560E081E00E943A091092E90299
S11313401092E8020895CF93C82F9091E8028091FB
S1131350E702981718F4CA3059F414C06091E902EE
S11313606F5F6093E90280E00E948409CA3091F0C3
S11313708091E8028F5F8093E80261E08C2F0E94E5
S11313803A0908C06091E9026F5F6093E90280E066
S11313900E948409CF910895CF93DF93EC01888153
S11313A0882331F021960E94A30989918111FBCFF2
S11313B0DF91CF9108950F931F93CF93DF9300D0C4
S11313C000D000D0CDB7DEB7082F90E3998384E333
S11313D08A839B8390E29C8384E28D839E8380E155
S11313E08093E702E7E6F0E09081905F9283918139
S11313F0905F9383BD9AC59A0E94850F8BE49DE10B
S11314000197F1F700C0000043E0BE016F5F7F4F1A
S113141087E20E940E09182F81EE94E00197F1F7FC
S113142000C0000043E0BE016F5F7F4F87E20E946F
S11314300E09182B43E0BE016F5F7F4F87E20E94C5
S11314400E09182B43E0BE016C5F7F4F87E20E94B8
S11314500E09182B60E088E20E943A09812B09F0FA
S1131460C59860E08CE00E943A0960E086E00E9442
S11314703A0960E081E00E943A0960E0802F0E940E
S11314803A0926960FB6F894DEBF0FBECDBFDF91A2
S1131490CF911F910F91089568E00E943A09089531
S11314A080EC87B980E886B9D0980895369A369941
S11314B0FECF64B175B180E090E00E94CF1020E0CF
S11314C030E040E151E40E945D1120E030E040EA68
S11314D051E40E94271020E030E040E052E40E94F2
S11314E0BB0F08950F931F93CF93DF93CDB7DEB750
S11314F08C012091C6053091C7058091C805909153
S1131500C9058217930774F448E851E060E070E07D
S113151081E00E948D0649E951E061E070E081E0DC
S11315200E948D06F801E252FD4F208131812F5F28
S11315303F4F3183208389E4829FA001839F500D14
S11315401124D801A40FB51FFE01379601900D9206
S11315508A95E1F7DF91CF911F910F910895FC01D6
S1131560E452FD4F4081518132962081318124170C
S113157035077CF032979A012F5F3F4F31832083E8
S113158069E4649F9001659F300D1124820F931FBD
S1131590089580E090E00895FC01E452FD4F4081FD
S11315A05181329620813181241735074CF069E44A
S11315B0649F9001659F300D1124820F931F08953D
S11315C080E090E0089584B7806884BF84B7806821
S11315D084BF0895EF92FF920F931F93CF93DF93ED
S11315E0CDB7DEB761970FB6F894DEBF0FBECDBF9F
S11315F082E00E94370640E050E060E070E082E064
S11316000E9462062091C6053091C7058091C805E5
S11316109091C9058217930794F469EA71E082E016
S11316200E944B0640E050E061E070E082E00E94DE
S1131630620661EB71E082E00E944B062CC08AEEE8
S113164092E00E94CC0A8C01FC01E95BFF4F81818E
S11316508F9380818F9386EB91E09F938F93CE013C
S113166001967C019F938F930E947113B70182E0CE
S11316700E944B0640E050E061E070E082E00E948E
S11316806206B80182E00E944B060F900F900F9003
S11316900F900F900F9061960FB6F894DEBF0FBEB7
S11316A0CDBFDF91CF911F910F91FF90EF900895DF
S11316B0CF93DF93CDB7DEB761970FB6F894DEBF53
S11316C00FBECDBF0E94E30A8FE19EE40197F1F7BC
S11316D000C000001092C7051092C6058FEF9FEF5F
S11316E09093C9058093C8051092D20280E00E94AD
S11316F0050681E00E94050682E00E9405069FEF30
S1131700E0E7F2E09150E040F040E1F700C0000073
S113171080E00E944C0F0E942C030E940D0341ECB8
S113172051E060E070E081E00E948D0640ED51E000
S113173061E070E081E00E948D0682E00E9437063D
S113174040E050E060E070E082E00E9462066AEDF2
S113175071E082E00E944B0640E050E061E070E0FE
S113176082E00E94620668EE71E082E00E944B060D
S11317702FEF83ED90E3215080409040E1F700C0CB
S113178000000E94EA0A0F2EF6ECAF2EF5E0BF2E01
S1131790F02D0F2EF8ECCF2EF5E0DF2EF02D552492
S11317A053940F2EF7EF8F2EF1E09F2EF02DFE01B4
S11317B031967F010F2EF0E06F2EF2E07F2EF02D98
S11317C00E94B0038823E1F0FFEF20E782E0F150AC
S11317D020408040E1F700C000000E94B00388234D
S11317E079F00E9496040E94B6049FEFE0E7F2E0CD
S11317F09150E040F040E1F700C000000E942C034B
S11318000E94780F0E940F038823D1F26091D202C4
S113181070E084EF91E00E9417038091D202882344
S113182009F455C08AEE92E00E94AF0AF5012081C6
S11318303181F60180819181821793078CF441EC08
S113184051E060E070E0852D0E948D0640ED51E08E
S113185061E070E0852D0E948D061092D20287C04F
S11318608AEE92E00E94CC0A8C011F938F93FC01B4
S1131870E95BFF4F81818F9380818F939F928F9239
S1131880FF92EF920E947113A70160E070E0852D32
S11318900E948D06C80141969F938F938C969F93C7
S11318A08F930D5C1F4F1F930F937F926F92FF9244
S11318B0EF920E947113A70161E070E0852D0E94F0
S11318C08D060FB6F894DEBF0FBECDBF50C0F50134
S11318D020813181F60180819181821793077CF404
S11318E041EC51E060E070E0852D0E948D0640EDF2
S11318F051E061E070E0852D0E948D0638C0509261
S1131900D2028AEE92E00E94CC0A8C011F938F933C
S1131910FC01E95BFF4F81818F9380818F939F92BC
S11319208F92FF92EF920E947113A70160E070E022
S1131930852D0E948D06C80141969F938F938C96A6
S11319409F938F930D5C1F4F1F930F937F926F9202
S1131950FF92EF920E947113A70161E070E0852D60
S11319600E948D060FB6F894DEBF0FBECDBF0E9455
S1131970EA0A9FEFE4E3FCE09150E040F040E1F735
S113198000C000001DCF0E944513089541960E9497
S11319904513089582960E9445130895FC01E95B5E
S11319A0FF4F718360830895C3960E944513089581
S11319B0CD960E94451308954FE052E060E070E038
S11319C080E00E948D060E9481030E9496038DEDA3
S11319D095E00E943E0346ED52E061E070E080E055
S11319E00E948D0608958F3161F466ED72E08CECEF
S11319F095E00E94C60C0E94330383E00E944C0FC2
S1131A0008958E3161F466ED72E08CEC95E00E94ED
S1131A10C60C0E94330381E00E944C0F08950E947B
S1131A20220446ED52E061E070E080E00E948D0601
S1131A3086ED92E00E941D030E94960308954AE1F8
S1131A4052E060E070E080E00E948D064BE252E0DC
S1131A5061E070E080E00E948D060E942A021092EC
S1131A60D502089508958F31F9F48091D50281113A
S1131A700DC081E08093D5024DE352E061E070E057
S1131A8080E00E948D060E94300208951092D502D3
S1131A9066ED72E08CEC95E00E94D80C0E94330352
S1131AA086E00E944C0F08958E3159F466ED72E081
S1131AB08CEC95E00E94D80C0E94330384E00E94D1
S1131AC04C0F089580E00E94370640E050E060E04B
S1131AD070E080E00E94620663E472E080E00E94AD
S1131AE04B060E9496038CEC95E00E943E0346ED63
S1131AF052E061E070E080E00E948D0608958F312D
S1131B0061F466ED72E08CEC95E00E94C30C0E94D7
S1131B10330382E00E944C0F08958E3161F466ED28
S1131B2072E08CEC95E00E94C30C0E94330380E0C9
S1131B300E944C0F08950E94220446ED52E061E099
S1131B4070E080E00E948D0686ED92E00E941D0305
S1131B500E94960308954FE452E060E070E080E054
S1131B600E948D060E9481030E9496038EEE95E0EA
S1131B700E943E0346ED52E061E070E080E00E9486
S1131B808D0608958F3161F466ED72E08CEC95E07A
S1131B900E94CA0C0E94330384E00E944C0F0895F3
S1131BA08E3161F466ED72E08CEC95E00E94CA0C13
S1131BB00E94330382E00E944C0F08950E94220485
S1131BC046ED52E061E070E080E00E948D0686ED13
S1131BD092E00E941D030E9481030E9496030895CF
S1131BE049E552E060E070E080E00E948D060E94CA
S1131BF0500A08950F931F93CF93DF93CDB7DEB7A9
S1131C0064970FB6F894DEBF0FBECDBF0E94560A8C
S1131C108E010F5F1F4F22E045E00E94F811A801DA
S1131C2061E070E080E00E948D06B80186ED92E0EC
S1131C300E94451364960FB6F894DEBF0FBECDBF65
S1131C40DF91CF911F910F9108958F3161F466ED6B
S1131C5072E08CEC95E00E94D40C0E94330385E082
S1131C600E944C0F08958E3159F466ED72E08CECAD
S1131C7095E00E94D40C0E94330383E00E944C0F31
S1131C8008950F931F93CF93DF93CDB7DEB7C45658
S1131C90D1090FB6F894DEBF0FBECDBF6091D30259
S1131CA07091D4026F5F7F4F072E000C880B990B45
S1131CB00E94D1108E010F5F1F4F20E043E00E946D
S1131CC0F8114DE050E060E070E080E00E946206B0
S1131CD0B80180E00E944B066091D3027091D40257
S1131CE06F5F7F4F8CEC95E00E94CE0CCC59DF4F98
S1131CF00FB6F894DEBF0FBECDBFDF91CF911F9119
S1131D000F91089540E050E060E070E080E00E94B0
S1131D10620646E652E060E070E080E00E948D06D4
S1131D200E94410E40E050E061E070E080E00E94DB
S1131D30620644E752E061E070E080E00E948D06B4
S1131D400895CF93DF9389E490E00E941812EC0188
S1131D506CEC75E00E9445136DED75E0CE01419683
S1131D600E9445136EEE75E0CE0182960E944513E3
S1131D70FE01E95BFF4F8091130690911406918355
S1131D8080836FEF75E0CE01C3960E94451369E02E
S1131D9076E0CE01CD960E9445138DB79EB7895447
S1131DA091090FB6F8949EBF0FBE8DBFADB7BEB7F5
S1131DB0119689E4FE0101900D928A95E1F78AEE6D
S1131DC092E00E94720A8DB79EB7875B9F4F0FB651
S1131DD0F8949EBF0FBE8DBFCE010E94AD12DF915D
S1131DE0CF910895ECECF5E01082118A12A213AAA7
S1131DF01092090608958F3149F580E00E94370654
S1131E0043E050E060E070E080E00E946206809170
S1131E10D3029091D40201969093D4028093D3027A
S1131E200E94A10E65E872E080E00E944B062FEF4D
S1131E3087E893E1215080409040E1F700C0000022
S1131E4080E00E944C0F0E94F20E08958E3119F426
S1131E5085E00E944C0F089581E00E944C0F089584
S1131E6080E00E94370640E050E060E070E080E0EF
S1131E700E9462066FE872E080E00E944B0640E038
S1131E8050E061E070E080E00E94620668E972E080
S1131E9080E00E944B060895CF93C82F482F880FE7
S1131EA0550B660B770B47305105D0F4FA01EF5C04
S1131EB0FF4F0C94DE110E94300F16C00E94620D79
S1131EC013C00E94DC0C10C00E94AB0D0DC00E9418
S1131ED0F00D0AC00E941F0D07C00E94820E04C0AC
S1131EE085EA92E00E941603C0931506CF910895E7
S1131EF080911506843019F0853021F008950E94F0
S1131F00FA0D08950E94320D089511B880E280B947
S1131F10089594EA96BF06B607FEFDCF91B1987F67
S1131F20983011F0903179F483B984E886BF06B60D
S1131F3007FEFDCF91B1987F983139F081E090345C
S1131F4029F480E0089581E0089580E0089584E90B
S1131F5086BF06B604FCFDCF089583B984E886BF26
S1131F6006B607FEFDCF91B1987F81E0983209F45F
S1131F7080E008955058BB27AA270E94D20F0C94E2
S1131F8023110E94151138F00E941C1120F039F41D
S1131F909F3F19F426F40C9412110EF4E095E7FB1C
S1131FA00C940C11E92F0E94341158F3BA176207EC
S1131FB073078407950720F079F4A6F50C9456115D
S1131FC00EF4E0950B2EBA2FA02D0B01B901900150
S1131FD00C01CA01A0011124FF27591B99F0593F94
S1131FE050F4503E68F11A16F040A22F232F342FDC
S1131FF04427585FF3CF469537952795A795F0402A
S11320005395C9F77EF41F16BA0B620B730B840B3E
S1132010BAF09150A1F0FF0FBB1F661F771F881FF6
S1132020C2F70EC0BA0F621F731F841F48F487954E
S113203077956795B795F7959E3F08F0B0CF939540
S1132040880F08F09927EE0F9795879508950E94B9
S11320503B100C9423110E941C1158F00E9415117E
S113206040F029F45F3F29F00C940C1151110C94A9
S113207057110C9412110E94341168F39923B1F38F
S1132080552391F3951B550BBB27AA27621773079A
S1132090840738F09F5F5F4F220F331F441FAA1F2E
S11320A0A9F335D00E2E3AF0E0E832D091505040EA
S11320B0E695001CCAF72BD0FE2F29D0660F771F98
S11320C0881FBB1F261737074807AB07B0E809F07E
S11320D0BB0B802DBF01FF2793585F4F3AF09E3F03
S11320E0510578F00C940C110C9457115F3FE4F3F4
S11320F0983ED4F3869577956795B795F7959F5F46
S1132100C9F7880F911D9695879597F90895E1E091
S1132110660F771F881FBB1F621773078407BA07F0
S113212020F0621B730B840BBA0BEE1F88F7E0954B
S113213008950E94A0106894B1110C945711089549
S11321400E943C1188F09F5798F0B92F9927B751F6
S1132150B0F0E1F0660F771F881F991F1AF0BA9547
S1132160C9F714C0B13091F00E945611B1E008953E
S11321700C945611672F782F8827B85F39F0B93F30
S1132180CCF3869577956795B395D9F73EF49095FA
S11321908095709561957F4F8F4F9F4F0895E89478
S11321A009C097FB3EF490958095709561957F4F9B
S11321B08F4F9F4F9923A9F0F92F96E9BB27939549
S11321C0F695879577956795B795F111F8CFFAF459
S11321D0BB0F11F460FF1BC06F5F7F4F8F4F9F4F8A
S11321E016C0882311F096E911C0772321F09EE8E8
S11321F0872F762F05C0662371F096E8862F70E04E
S113220060E02AF09A95660F771F881FDAF7880F27
S11322109695879597F9089597F99F6780E870E0F8
S113222060E008959FEF80EC089500240A94161648
S1132230170618060906089500240A9412161306B0
S1132240140605060895092E0394000C11F488233E
S113225052F0BB0F40F4BF2B11F460FF04C06F5F5A
S11322607F4F8F4F9F4F089557FD9058440F551F30
S113227059F05F3F71F04795880F97FB991F61F004
S11322809F3F79F087950895121613061406551F7B
S1132290F2CF4695F1DF08C0161617061806991FE7
S11322A0F1CF86957105610508940895E894BB27DC
S11322B066277727CB0197F908950E9470110C9433
S11322C023110E94151138F00E941C1120F095234F
S11322D011F00C940C110C94121111240C9457113C
S11322E00E94341170F3959FC1F3950F50E0551F70
S11322F0629FF001729FBB27F00DB11D639FAA2757
S1132300F00DB11DAA1F649F6627B00DA11D661FA5
S1132310829F2227B00DA11D621F739FB00DA11DC6
S1132320621F839FA00D611D221F749F3327A00D80
S1132330611D231F849F600D211D822F762F6A2F1C
S113234011249F5750409AF0F1F088234AF0EE0F81
S1132350FF1FBB1F661F771F881F91505040A9F7AE
S11323609E3F510580F00C940C110C9457115F3F63
S1132370E4F3983ED4F3869577956795B795F795EA
S1132380E7959F5FC1F7FE2B880F911D9695879562
S113239097F9089597FB072E16F4009407D077FD5C
S11323A009D00E94E41107FC05D03EF49095819574
S11323B09F4F0895709561957F4F0895EE0FFF1F0D
S11323C00590F491E02D0994AA1BBB1B51E107C0B1
S11323D0AA1FBB1FA617B70710F0A61BB70B881FB1
S11323E0991F5A95A9F780959095BC01CD01089540
S11323F0EF920F931F93CF93DF93E80147FD02C041
S113240034E001C034E1E42F440FFF0BF7FF03C0B5
S1132410F195E195F109E32E022F2E2FAE010E94D2
S11324206615CE01DF91CF911F910F91EF90089522
S1132430CF93DF938230910510F482E090E0E09135
S11324401806F091190620E030E0C0E0D0E03097A3
S113245011F14081518148175907C0F048175907B5
S113246061F482819381209719F09B838A832BC026
S1132470909319068093180626C02115310519F08A
S11324804217530718F49A01BE01DF01EF010280DD
S1132490F381E02DDCCF2115310509F1281B390B1F
S11324A02430310590F412968D919C911397611507
S11324B0710521F0FB019383828304C09093190674
S11324C080931806FD01329644C0FD01E20FF31F0C
S11324D081939193225031092D933C933AC02091DA
S11324E0160630911706232B41F420916200309197
S11324F063003093170620931606209160003091F4
S113250061002115310541F42DB73EB740916400B7
S113251050916500241B350BE0911606F0911706C7
S1132520E217F307A0F42E1B3F0B2817390778F0A6
S1132530AC014E5F5F4F2417350748F04E0F5F1F05
S113254050931706409316068193919302C0E0E0DE
S1132550F0E0CF01DF91CF9108950F931F93CF93B4
S1132560DF93009709F48CC0FC0132971382128226
S113257000911806109119060115110581F42081A6
S11325803181820F931F2091160630911706281768
S1132590390779F5F0931706E093160671C0D80150
S11325A040E050E0AE17BF0750F412962D913C91D5
S11325B01397AD012115310509F1D901F3CF9D011F
S11325C0DA013383228360817181860F971F82171A
S11325D0930769F4EC0128813981260F371F2E5F98
S11325E03F4F318320838A819B8193838283452B50
S11325F029F4F0931906E093180642C01396FC934D
S1132600EE931297ED01499159919E01240F351FC4
S1132610E217F30771F480819181840F951F02966C
S113262011969C938E938281938113969C938E939F
S11326301297E0E0F0E0D80112968D919C911397E7
S1132640009719F0F8018C01F6CF8D919C919801B7
S11326502E5F3F4F820F931F20911606309117066D
S11326602817390769F4309729F410921906109243
S1132670180602C0138212821093170600931606DE
S1132680DF91CF911F910F910895FB01DC0101901F
S11326900D920020E1F70895BB274A3031F49923C5
S11326A022F4BDE2909581959F4F0C945813BB275B
S11326B0FB015527AA27880F991FAA1FA41710F0FA
S11326C0A41B83955051B9F7A05DAA3308F0A95D06
S11326D0A193009779F7B111B1931192CB010C94A6
S11326E0E217AEE0B0E0E7E7F3E10C9496180D8949
S11326F01E8986E08C831A8309838FEF9FE79E836C
S11327008D83AE01475E5F4F6F89788DCE01019650
S11327100E9494132F813885F801E20FF31F108271
S11327202E96E4E00C94B218ACE0B0E0EAE9F3E1F0
S11327300C9488187C016B018A01FC0117821682B3
S1132740838181FFBDC1CE0101964C01F7019381C4
S1132750F60193FD859193FF81916F01882309F41C
S1132760ABC1853239F493FD859193FF81916F015B
S1132770853229F4B70190E00E94F217E7CF512C7B
S1132780312C20E02032A0F48B3269F030F4803216
S113279059F0833269F420612CC08D3239F08033D2
S11327A039F4216026C02260246023C0286021C03F
S11327B027FD27C030ED380F3A3078F426FF06C0E5
S11327C0FAE05F9E300D1124532E13C08AE0389E28
S11327D0300D1124332E20620CC08E3221F426FDDC
S11327E06BC1206406C08C3611F4206802C08836A0
S11327F041F4F60193FD859193FF81916F0181115D
S1132800C1CF982F9F7D9554933028F40C5F1F4FB0
S1132810FFE3F9830DC0833631F0833771F08335DC
S113282009F05BC022C0F801808189830E5F1F4FCD
S113283044244394512C540115C03801F2E06F0E26
S1132840711CF801A080B18026FF03C0652D70E0E3
S113285002C06FEF7FEFC5012C870E94D7172C01B0
S113286083012C852F77222E17C03801F2E06F0EDA
S1132870711CF801A080B18026FF03C0652D70E0B3
S113288002C06FEF7FEFC5012C870E94CC172C018B
S11328902C852068222E830123FC1BC0832D90E00D
S11328A048165906B0F4B70180E290E00E94F2178E
S11328B03A94F4CFF50127FC859127FE81915F01BD
S11328C0B70190E00E94F21731103A94F1E04F1AE8
S11328D051084114510471F7E5C0843611F089366A
S11328E039F5F80127FF07C06081718182819381E6
S11328F00C5F1F4F08C060817181072E000C880B8C
S1132900990B0E5F1F4F2F76722E97FF09C090957B
S11329108095709561957F4F8F4F9F4F2068722EE1
S11329202AE030E0A4010E942A18A82EA81844C066
S1132930853729F42F7EB22E2AE030E025C0F22F0D
S1132940F97FBF2E8F36C1F018F4883579F0B4C002
S1132950803719F0883721F0AFC02F2F2061B22EB5
S1132960B4FE0DC08B2D8460B82E09C024FF0AC0AC
S11329709F2F9660B92E06C028E030E005C020E104
S113298030E002C020E132E0F801B7FE07C0608108
S11329907181828193810C5F1F4F06C060817181B8
S11329A080E090E00E5F1F4FA4010E942A18A82E19
S11329B0A818FB2DFF777F2E76FE0BC0372D3E7FA8
S11329C0A51450F474FE0AC072FC08C0372D3E7E74
S11329D005C0BA2C372D03C0BA2C01C0B52C34FF66
S11329E00DC0FE01EA0DF11D8081803311F4397EA2
S11329F009C032FF06C0B394B39404C0832F867811
S1132A0009F0B39433FD13C030FF06C05A2CB3143D
S1132A1018F4530C5B18B32CB31468F4B70180E2B8
S1132A2090E03C870E94F217B3943C85F5CFB31431
S1132A3010F43B1801C0312C34FF12C0B70180E3FD
S1132A4090E03C870E94F2173C8532FF17C031FDAD
S1132A5003C088E790E002C088E590E0B7010CC0AD
S1132A60832F867859F031FF02C08BE201C080E2E7
S1132A7037FD8DE2B70190E00E94F217A51438F4F7
S1132A80B70180E390E00E94F2175A94F7CFAA941A
S1132A90F401EA0DF11D8081B70190E00E94F21764
S1132AA0A110F5CF332009F451CEB70180E290E0B4
S1132AB00E94F2173A94F6CFF7018681978102C0FB
S1132AC08FEF9FEF2C96E2E10C94A4184F925F9243
S1132AD06F927F929F92AF92BF92CF92DF92EF92CA
S1132AE0FF920F931F93CF93DF93CDB7DEB7299750
S1132AF00FB6F894DEBF0FBECDBF6A01122FB02E01
S1132B002BE3201720F0FF24F394F00E02C0BCE363
S1132B10FB2E0F2D27E0AE014F5F5F4F0E94F4168E
S1132B20AC018981982F9970913031F0E1FC06C095
S1132B30E0FE06C090E205C09DE203C09BE201C036
S1132B4090E0EE2DE07183FF3CC0911102C083E060
S1132B5001C084E0811718F4212F281B01C020E054
S1132B60E1110BC0F601822F30E2882319F0319372
S1132B708150FBCFC20ED11C20E0992329F0D6014D
S1132B809C93F60131966F01C6010396E2FE0AC0DA
S1132B903EE4D6013C9341E411964C93119712966E
S1132BA03C9306C03EE6F601308341E6418332831E
S1132BB0FC01322F40E2332309F442C041933150E7
S1132BC0FACF82FF44C0911102C083E001C084E0C7
S1132BD0811718F4212F281B01C020E0E1110BC03C
S1132BE0F601822F30E2882319F031938150FBCF14
S1132BF0C20ED11C20E0992329F0D6019C93F60142
S1132C0031966F01C6010396E2FE0BC039E4D6018A
S1132C103C933EE411963C93119736E412963C9310
S1132C2007C039E6F60130833EE6318336E6328367
S1132C30FC01322F40E2332319F041933150FBCF92
S1132C40FC01E20FF11D10828EEF9FEFB7C0F1E09F
S1132C50911101C0F0E06F2F70E01416150624F4F2
S1132C609A012F5F3F4F02C021E030E0260F371F4B
S1132C70BB2029F06B2D70E06F5F7F4F02C060E0D6
S1132C8070E0260F371F612F70E0261737071CF4FA
S1132C90121B212F01C020E03E2D387159F4D601BA
S1132CA0322F60E2332319F06D933150FBCFC20E03
S1132CB0D11C20E0FF2331F0D6019C93B6016F5F55
S1132CC07F4F6B01E1110BC0F601922F30E3992382
S1132CD019F031939150FBCFC20ED11C20E09F2DEF
S1132CE0940F3A81782F7071A72E84FF03C031337B
S1132CF009F49150191624F4993018F098E001C0A1
S1132D0091E0E42F852F57FF02C0E0E080E06E2FB2
S1132D10782FE0E0F0E0AEE29A2E3A01691A7108E9
S1132D202A01461A570A0B2D10E011950195110935
S1132D306F3F8FEF780729F4D6019C92C601019664
S1132D406C014617570784F0661677066CF47F010A
S1132D50E40CF51CA1E0B0E0AC0FBD1FEA0EFB1EB5
S1132D60D7011196BC9002C090E3B92E615071094D
S1132D703196C60101967C016017710724F0D601D3
S1132D80BC926C01D5CF6417750741F4363320F437
S1132D90353321F4A11002C081E3B82EF601B082CC
S1132DA0F701822F90E2882319F091938150FBCF91
S1132DB0F701E20FF11D108280E090E029960FB632
S1132DC0F894DEBF0FBECDBFDF91CF911F910F915D
S1132DD0FF90EF90DF90CF90BF90AF909F907F9047
S1132DE06F905F904F900895283008F027E03327C4
S1132DF0DA01990F311D87FD916000966105710517
S1132E0039F432602E5F3D9330E32A95E1F708955B
S1132E109F3F30F080387105610509F03C5F3C5FED
S1132E203D93913008F08068911DDF93CF931F93F9
S1132E300F93FF92EF92192F987F9695E92F96950D
S1132E409695E90FFF27E653FF4F99273327EE2482
S1132E50FF24A701E70105900894079428F4360F8E
S1132E60E71EF81E491F511D660F771F881F991F03
S1132E700694A1F70590079428F4E70EF81E491F5D
S1132E80561FC11D770F881F991F661F0694A1F74F
S1132E900590079428F4F80E491F561FC71FD11D2B
S1132EA0880F991F661F771F0694A1F70590079452
S1132EB020F4490F561FC71FD81F990F661F771F8D
S1132EC0881F0694A9F784911095177041F0D69540
S1132ED0C79557954795F794E7941A95C1F7E0E796
S1132EE0F0E0689415901591359165919591059050
S1132EF07FE27395E118F10A430B560BC90BD00915
S1132F00C0F7E10CF11E431F561FC91FD01D7EF4EC
S1132F10703311F48A95E6CFE894015030F0080F2D
S1132F200AF40027021708F4202F2395022F7A337E
S1132F3028F079E37D932A95E9F710C07D932A95CB
S1132F4089F6069497956795379517951794E11820
S1132F50F10A430B560BC90BD00998F023957E91C7
S1132F6073957A3308F070E37C932013B8F77E915D
S1132F7070617D9330F0839571E37D9370E32A95BE
S1132F80E1F71124EF90FF900F911F91CF91DF9102
S1132F90992787FD90950895FC0105906150704034
S1132FA00110D8F7809590958E0F9F1F0895FC010E
S1132FB06150704001900110D8F7809590958E0F64
S1132FC09F1F0895DC01FC01672F71917723E1F7BE
S1132FD0329704C07C916D9370836291AE17BF07E2
S1132FE0C8F308950F931F93CF93DF93FB012381BD
S1132FF021FD03C08FEF9FEF28C022FF16C046813A
S11330005781248135814217530744F4A081B1814B
S11330109D012F5F3F4F318320838C93268137811D
S11330202F5F3F4F3783268310C0EB01092F182FE2
S11330300084F185E02D0995892BE1F68E819F812D
S113304001969F838E83812F902FDF91CF911F91C3
S11330500F910895FA01AA27283051F1203181F106
S1133060E8946F936E7F6E5F7F4F8F4F9F4FAF4F8C
S1133070B1E03ED0B4E03CD0670F781F891F9A1F9F
S1133080A11D680F791F8A1F911DA11D6A0F711D53
S1133090811D911DA11D20D009F468943F912AE05F
S11330A0269F11243019305D3193DEF6CF01089547
S11330B0462F4770405D4193B3E00FD0C9F7F6CF78
S11330C0462F4F70405D4A3318F0495D31FD405240
S11330D0419302D0A9F7EACFB4E0A69597958795D6
S11330E077956795BA95C9F70097610571050895B5
S11330F09B01AC010A2E0694579547953795279561
S1133100BA95C9F7620F731F841F951FA01D0895F8
S11331102F923F924F925F926F927F928F929F92E3
S1133120AF92BF92CF92DF92EF92FF920F931F93D1
S1133130CF93DF93CDB7DEB7CA1BDB0B0FB6F89482
S1133140DEBF0FBECDBF09942A88398848885F84C2
S11331506E847D848C849B84AA84B984C884DF8033
S1133160EE80FD800C811B81AA81B981CE0FD11D17
S11331700FB6F894DEBF0FBECDBFED010895F894ED
S1053180FFCF7B
S113318200001A0620000880C00000253264730083
S113319242504D006E657744617461206973204E1C
S11331A2756C6C003132330041424300616263004A
S11331B250494E5F726F773A004B6579706164478C
S11331C26574526F773A0050494E423A004B657922
S11331D2706164476574436F6C3A004B6579506162
S11331E2645F4164644B65793A2033317C33300047
S11331F2726F7700636F6C0050726F636573734B09
S113320265793A20556E646566696E656420437516
S11332127272656E74205374617465004C63645FEA
S1133222496E69743A204C636454797065204E6F18
S113323274737570706F72746564004C63645F4379
S11332426C65617253637265656E3A204C636454B3
S1133252797065204E6F7420737570706F72746527
S113326264004C63645F5072696E74733A204C63F9
S11332726454797065204E6F7420737570706F7228
S1133282746564004C63645F506F736974696F6E34
S11332923A204C636454797065204E6F74207375C0
S11332A270706F727465640050617469656E7473D2
S11332B220617265205761690074696E672E7573A7
S11332C26520627574746F6E0053657269616C3A3D
S11332D2004E6F6E650053657269616C3A20256415
S11332E2004E6F2050617469656E7420696E20000F
S11332F2746865207175657565004A5441472044B8
S1133302697361626C6564004C434420576F726B4D
S1133312696E67006463002532642D2531337300BE
S11333222536734625337342504D25327359004571
S11333326E746572204167653A0046696E6765720C
S1133342206F6E20677265656E2D004C6967687424
S11333522C207072657373206E657874004C6967F3
S1133362687400456E746572204E616D653A005052
S1133372686F6E65206E6F3A0054656D7065726198
S1133382747572653A00596F75722053657269617A
S11333926C3A20004E3A436F6E6669726D20503A61
S11333A24261636B005468616E6B20596F750057FC
S11333B2656C636F6D652100312E204E6577204563
S11333C26E74727900476F746F53746174653A2036
S11333D26E65775374617465206E6F7420646566DC
S10933E2696E6564000041
S9030000FC
